:100000000C945F000C94EE080C941B090C94870070
:100010000C9487000C9487000C9487000C946F0854
:100020000C9487000C94AA020C9487000C9487000F
:100030000C9487000C9487000C9487000C94870024
:100040000C9448090C9487000C944F060C94870676
:100050000C9487000C9487000C9487000C94870004
:100060000C9487000C948700020000000800020135
:10007000000003040700000000000000000102046B
:10008000081020408001020408102001020408101A
:100090002004040404040404040202020202020311
:1000A000030303030300000000250028002B0000C9
:1000B000000000240027002A0000B70626071124AC
:1000C0001FBECFEFD8E0DEBFCDBF11E0A0E0B1E0B2
:1000D000ECEDF8E102C005900D92AA33B107D9F713
:1000E00022E0AAE3B1E001C01D92A73BB207E1F70D
:1000F00010E0CFE5D0E004C02197FE010E94160B6E
:10010000CD35D107C9F70E9432070C946C0C0C94C2
:100110000000FFCF90935F0180935E0126E040E0F6
:1001200052EC61E070E08AEE91E00E94E6056AE040
:1001300071E08AEE91E00E946E0760915E0170911D
:100140005F014AE050E08AEE91E00E94220861E0FF
:100150008DE00E94FC0961E08DE00E943B0A089559
:10016000AF92BF92CF92DF92EF92FF920F931F93C5
:10017000CF93DF93DC017B018A01DFB7F894C09154
:10018000DA014091DB014C1718F0C1110AC027C0F9
:1001900081E090E00E948A0080915E0190915F0171
:1001A00081C0E3E7F1E090E081E070E0208130E0A1
:1001B000582F2A173B0709F0572F9F5F9C1721F0F4
:1001C0003D96552399F302C0552349F083E090E012
:1001D0000E948A0080915E0190915F0163C0AF3FF1
:1001E000B10581F0BB232CF0842F90E08A179B0788
:1001F0004CF482E090E00E948A0080915E01909130
:100200005F0150C0CC2ED12C2DE0C29FC001112423
:10021000FC01EE58FE4F5F01A183F286E186148750
:1002200003870091070110E064E070E0C8010E94BC
:100230001C0BF50194838383009749F484E090E0DC
:100240000E948A0080915E0190915F012BC02DE099
:100250002C9DF0012D9DF00D1124EE58FE4F015004
:10026000104C000F111F000F111F800F911F092E3E
:10027000000CAA0BBB0B85839683A783B087C08332
:1002800082818160828344E651E062E771E0C601C9
:100290000E94B9048091DA018F5F8093DA01DFBF99
:1002A00080E090E0DF91CF911F910F91FF90EF9050
:1002B000DF90CF90BF90AF900895CF9384E691E008
:1002C0000E94BC048F3F09F455C0A0910601AF3FC6
:1002D000A1F09DE0989FF0011124EE58FE4F9A9FE7
:1002E000D0011124AE58BE4F918111968C91981770
:1002F00020F080915D018823E9F184E691E00E947D
:10030000D004C82FE0910601EF3F01F18E17F1F004
:100310002E2F30E08DE0E89FF0011124EE58FE4FC3
:100320004091E5015091E6016091E7017091E8018B
:100330004583568367837087928191FD07C044E6A9
:1003400051E062E771E0C9010E94B9048DE0C89FE5
:10035000F0011124EE58FE4F85819681A781B0856A
:100360008093E5019093E601A093E701B093E80143
:10037000C0930601CF9108959091E9010F92092E43
:10038000F8940F921F9211242F923F924F925F92F6
:100390006F927F928F929F92AF92BF92CF92DF9295
:1003A000EF92FF920F931F932F933F934F935F937F
:1003B0006F937F938F939F93AF93BF93CF93DF936D
:1003C000EF93FF93ADB7BEB7B093E601A093E501FD
:1003D000F89490915C01911104C080935D010E949A
:1003E0005D01E09106012E2F30E08DE0E89FF001E5
:1003F0001124EE58FE4F828180FF38C09DE0929F0D
:10040000F001939FF00D1124EE58FE4F8E7F8283F2
:100410008091E5019091E601A091E701B091E8019A
:100420008DBF9EBF81859285092E000CAA0BBB0B48
:100430008093E1019093E201A093E301B093E40182
:1004400043855485052E000C660B770B4093DD0128
:100450005093DE016093DF017093E001082E0F924C
:10046000092E0F92952F842F789430C08091E5014A
:100470009091E601A091E701B091E801F8948DBF59
:100480009EBFFF91EF91DF91CF91BF91AF919F916F
:100490008F917F916F915F914F913F912F911F911C
:1004A0000F91FF90EF90DF90CF90BF90AF909F9013
:1004B0008F907F906F905F904F903F902F901F9004
:1004C0000F900FBE802D0F908093E9018FB780931E
:1004D000E90181E00E94BC0108955FB7F894409162
:1004E0000601242F30E0F901EE0FFF1FEE0FFF1F72
:1004F000E45CFE4FDC01CB010197A109B1098083C7
:100500009183A283B38381E090E002C0880F991F9A
:100510004A95E2F760913A0170913B01862B972B47
:1005200090933B0180933A018DE0829FF001839F7D
:10053000F00D1124EE58FE4F8281826082835FBFEE
:100540000E94660208958FB78093E90180E00E94BF
:10055000BC0108958FB78093E901F8948091600100
:1005600090916101A0916201B09163010196A11D7A
:10057000B11D8093600190936101A0936201B093DB
:1005800063018091DB01882309F45CC0C0E001E0D5
:1005900010E0DDE08C2F90E0FC01EE0FFF1FEE0F6E
:1005A000FF1FE45CFE4F40815181628173814115E0
:1005B00051056105710581F0880F991F880F991FFA
:1005C000FC01E45CFE4F415051096109710940830F
:1005D00051836283738330C020913A0130913B0193
:1005E000A9010C2E02C0559547950A94E2F740FFE9
:1005F00023C0A8010C2E02C0440F551F0A94E2F735
:10060000409550952423352330933B0120933A01A4
:10061000D89FF001D99FF00D1124EE58FE4F228192
:100620002D7F228344E651E062E771E00E94B90425
:1006300080E00E94BC011895CF5F8091DB01C81754
:1006400008F4A8CF8091E9018FBF189583E08093CB
:10065000B0001092B200E0E7F0E08081816080831A
:100660000895CF93C82F0E942603C093DC0161E058
:100670006C0F6093DB0110925C0144E651E08AE666
:1006800091E00E94ED04CF9108958FB78093E90126
:10069000F89440E050E069E870E08FEF90E00E944D
:1006A000B00084E08093B1008091E9018FBF0E9487
:1006B00066020895CF93CFB7F894242F30E0FC0161
:1006C00033832283411103C0718360830BC0672B86
:1006D00031F021E030E0FC013183208303C0FC01D4
:1006E00011821082AC01445F5F4F6091DB01049680
:1006F0000E94ED04CFBFCF910895CF93CFB7F89468
:10070000FC01208131812115310529F02150310969
:100710003183208317C0309106012DE0329FF00114
:100720001124EE58FE4F228122602283AC01445FE7
:100730005F4F62E771E0832F90E00E94D703CFBF45
:100740000E946602CFBFCF9108951F93CF93DF938E
:10075000EC011FB7F8940C960E94D0048F3FA1F0D3
:100760009DE0899FF0011124EE58FE4F92819D7FFC
:10077000928344E651E062E771E090E00E94B904A0
:100780001FBF0E94A3020EC08A819B81892B29F082
:1007900081E090E09983888305C0888199810196E2
:1007A000998388831FBFDF91CF911F9108952F9266
:1007B0003F924F925F926F927F928F929F92AF92F1
:1007C000BF92CF92DF92EF92FF920F931F93CF933E
:1007D000DF935C016B01EA013FB6F8942A804C81FB
:1007E0008D818417C0F4222D30E07B80072D10E02E
:1007F0008DE08A9D70018B9DF00C1124E60EF71E92
:10080000E0E00F2EFDE05F2EF02D66246394412C76
:10081000842E912C1DC03FBE99C0E881F981E20F62
:10082000F31F8081D601589EA00DB11D1124E62D25
:1008300011969C91D70111968C91891708F0E42D9F
:10084000E11106C0C9010196B4010E94CC0A9C01C5
:100850000217130721F0EE2301F3F90104C0EE2380
:1008600009F462C0F901271430F54FEF470D642FEA
:1008700070E06E177F0708F452C04F3F09F451C073
:1008800008811981D801A60FB71FFC90842F90E032
:1008900001966C8170E00E94E00AD801A80FB91F90
:1008A000FC924150642F70E06E177F07E0F14F3FDC
:1008B00039F7890139C0772019F04FEF470D19C07A
:1008C000415017C008811981D801A60FB71FFC90AD
:1008D000842F90E001966C8170E00E94E00AD801BC
:1008E000A80FB91FFC92442311F0415002C04C8163
:1008F0004150642F70E06E177F0721F7E881F9817E
:10090000DF01A20FB31F1C91CB0101966C8170E037
:100910000E94E00AE80FF91F1083890105C08901D0
:1009200003C0890101C089018B8190E001966C812F
:1009300070E00E94E00A8B8388819981FC01E00FBE
:10094000F11FA0828D818F5F8D833FBEDF91CF919C
:100950001F910F91FF90EF90DF90CF90BF90AF90DD
:100960009F908F907F906F905F904F903F902F90CF
:1009700008950E94D70308952FB7F894DC011596C7
:100980003C91311103C02FBF8FEF08952FBFFC01A1
:1009900022810190F081E02DE20FF11D8081089508
:1009A000CF93FC01CFB7F8942581222389F04281AF
:1009B00050E0A081B181A40FB51F3C91CA010196FE
:1009C000648170E00E94E00A82832150258301C087
:1009D0003FEFCFBF832FCF910895DA013FB7F8944F
:1009E00012961C92129713961C92139711969C9331
:1009F0008E9314966C93149715961C9215976623F4
:100A000061F080E090E02FEFED91FC911197E80FFD
:100A1000F91F208301968617B8F33FBF0895FC01A4
:100A2000918D228D892F90E0805C9F4F821B9109D0
:100A30008F7399270895FC01918D828D981731F05D
:100A4000828DE80FF11D858D90E008958FEF9FEF67
:100A50000895FC01918D828D981761F0828DDF01E0
:100A6000A80FB11D5D968C91928D9F5F9F73928FA1
:100A700090E008958FEF9FEF08958DEA96E0892B1F
:100A800049F080E090E0892B29F00E94AD068111A9
:100A90000E9400000895FC01848DDF01A80FB11DA4
:100AA000A35ABF4F8C91248D30E02F5F3F4F2F739F
:100AB0003078332334F421503109206C3F6F2F5F9D
:100AC0003F4F248FA689B7898C93A089B1898C91D7
:100AD00080648C93938D848D981306C00288F3896B
:100AE000E02D80818F7D80830895CF93DF93EC018B
:100AF000888D81110FC018C00FB607FC0DC0908102
:100B000095FF0AC0A889B9898C9185FF05C0CE01DF
:100B10000E944B05EA89FB89908195FDEDCFA8895C
:100B2000B9898C9186FFE8CFDF91CF9108950F931B
:100B30001F93CF93DF93FC0181E0808F938D848D91
:100B4000981322C0A089B1898C9185FD2FC01CC04B
:100B50000FB607FC08C0E889F989808185FF03C0CA
:100B6000CE010E944B059C8D091791F38B8DFE01E0
:100B7000E80FF11DE35AFF4F10830B8FEA89FB89C1
:100B80008081806280831BC0238D30E02F5F3F4FC8
:100B90002F733078332334F421503109206C3F6FA8
:100BA0002F5F3F4F162FEF01022FDDCFA689B789A8
:100BB0006C930088F189E02D80818064808381E0DE
:100BC00090E0DF91CF911F910F910895BF92CF9246
:100BD000DF92EF92FF920F931F93CF93DF93EC017D
:100BE0006A017B01B22EE889F98982E08083411590
:100BF000514E61057105B1F060E079E08DE390E060
:100C0000A70196010E94F40A89019A010150110975
:100C1000210931093695279517950795011580E12A
:100C20001807A8F0E889F989108260E874E88EE175
:100C300090E0A70196010E94F40ADA01C901019728
:100C4000A109B109B695A795979587958C01EC8573
:100C5000FD851083EE85FF850083188EEC89FD8964
:100C6000B082EA89FB89808180618083EA89FB897F
:100C7000808188608083EA89FB89808180688083A5
:100C8000EA89FB8980818F7D8083DF91CF911F91DD
:100C90000F91FF90EF90DF90CF90BF9008951F923B
:100CA0000F920FB60F9211242F938F939F93AF93B0
:100CB000BF93EF93FF93E091FA01F091FB018081E4
:100CC00082FD14C0EAEEF1E0A689B7892C91818DEE
:100CD0008F5F8F73928D891771F0DF01E18DF0E0E6
:100CE000E651FE4F258F59968C9305C0E091000286
:100CF000F09101028081FF91EF91BF91AF919F919F
:100D00008F912F910F900FBE0F901F9018951F92EB
:100D10000F920FB60F9211242F933F934F935F932F
:100D20006F937F938F939F93AF93BF93EF93FF93B3
:100D30008AEE91E00E944B05FF91EF91BF91AF9138
:100D40009F918F917F916F915F914F913F912F91E3
:100D50000F900FBE0F901F9018958AEE91E00E94A1
:100D60000F0521E0892B09F420E0822F0895EAEE97
:100D7000F1E01382128288EE93E0A0E0B0E0848379
:100D80009583A683B78386E191E09183808385EC88
:100D900090E09587848784EC90E09787868780EC45
:100DA00090E0918B808B81EC90E0938B828B82EC36
:100DB00090E0958B848B86EC90E0978B868B118EE0
:100DC000128E138E148E08958F929F92AF92BF92BF
:100DD000CF92DF92EF92FF920F931F93CF93DF9307
:100DE0005C017B014C0182E0880E911C6501E5E00D
:100DF000CE0ED11C00E010E0F40161914F014AE0F9
:100E000050E0C7010E941A08EC016EE2C7010E947F
:100E100084078C0F9D1F080F191F8C149D0461F708
:100E20004AE050E0F5016581C7010E941A08800F71
:100E3000911FDF91CF911F910F91FF90EF90DF9065
:100E4000CF90BF90AF909F908F900895E7E8F2E029
:100E500086E291E09183808312821382148215824C
:100E6000089508950E9492090E9431070E949F0AE6
:100E7000CDE3D5E00E94CB0A2097E1F30E943D0527
:100E8000F9CFCF92DF92EF92FF920F931F93CF9300
:100E9000DF9341155105B1F08C01E62EF72EEA01E2
:100EA000C12CD12CD7016D917D01D801ED91FC9120
:100EB0000190F081E02DC8010995C80ED91E219737
:100EC00089F702C0C12CD12CC601DF91CF911F91AF
:100ED0000F91FF90EF90DF90CF900895611571050D
:100EE00081F0FB0101900020E9F73197AF01461B2B
:100EF000570BDC01ED91FC910280F381E02D099507
:100F0000089580E090E00895DC01ED91FC9101905E
:100F1000F081E02D09950895DC01ED91FC910280AE
:100F2000F381E02D42E050E068E271E00995089518
:100F30004F925F926F927F929F92AF92BF92CF92A9
:100F4000DF92EF92FF920F931F93CF93DF93CDB772
:100F5000DEB7A1970FB6F894DEBF0FBECDBF5C0120
:100F60006A017B01922E19A281E0821720F00F2ED8
:100F7000FAE09F2EF02D8E010F5D1F4F492C512C52
:100F8000612C712CC701B601A30192010E94F40AE1
:100F90008C2D929E80191124015011098A3010F471
:100FA000805D01C0895CD8018C93C22ED32EE42EC3
:100FB000F52EC114D104E104F10421F70115110546
:100FC00091F0F80101900020E9F73197AF01401B43
:100FD000510BD501ED91FC910280F381E02DB80118
:100FE000C501099502C080E090E0A1960FB6F89483
:100FF000DEBF0FBECDBFDF91CF911F910F91FF904C
:10100000EF90DF90CF90BF90AF909F907F906F90C8
:101010005F904F9008952115310549F4DC01ED9161
:10102000FC910190F081E02D642F099508950E94B4
:10103000980708959A01462F50E060E070E00E9402
:101040000B0808950F931F93CF93DF93EC019A0140
:10105000AB0160E070E00E940B088C01CE010E94A1
:101060008C07800F911FDF91CF911F910F910895F1
:10107000813039F018F0823051F0089510926E00EE
:101080000895EFE6F0E080818D7F80830895E0E7AA
:10109000F0E080818D7F808381E08093B000E1EB80
:1010A000F0E08081887F846080831092B30008958F
:1010B000CF93C82F809108018C1308C0E8E6F0E0B8
:1010C000E4918E2F9FEF9093080101C08FEF0E9453
:1010D000380860E08C2F0E943B0ACF9108951F9240
:1010E0000F920FB60F9211242F933F934F935F935C
:1010F0006F937F938F939F93AF93BF93EF93FF93E0
:101100008091900290919102A0919202B0919302ED
:10111000892B8A2B8B2B51F180918D02E0918E02CD
:10112000F0918F0290818927808380919002909125
:101130009102A0919202B0919302181619061A0614
:101140001B06C4F48091900290919102A0919202AA
:10115000B09193020197A109B109809390029093F5
:101160009102A0939202B093930204C0809108016F
:101170000E945808FF91EF91BF91AF919F918F917D
:101180007F916F915F914F913F912F910F900FBE83
:101190000F901F901895823000F5E82FF0E0EE0FC9
:1011A000FF1FEC56FD4F71836083882319F0813057
:1011B00049F00895E9E6F0E080818C7F482B408378
:1011C000E89A0895E9E6F0E08081440F551F440F46
:1011D000551F837F482B4083E99A08951F920F92F1
:1011E0000FB60F9211242F933F934F935F936F93FA
:1011F0007F938F939F93AF93BF93EF93FF938091D0
:10120000940290919502892B29F0E0919402F0913B
:1012100095020995FF91EF91BF91AF919F918F91A9
:101220007F916F915F914F913F912F910F900FBEE2
:101230000F901F9018951F920F920FB60F921124C6
:101240002F933F934F935F936F937F938F939F93CE
:10125000AF93BF93EF93FF93809196029091970283
:10126000892B29F0E0919602F09197020995FF9160
:10127000EF91BF91AF919F918F917F916F915F910E
:101280004F913F912F910F900FBE0F901F90189587
:101290001F920F920FB60F9211242F933F938F93AB
:1012A0009F93AF93BF938091990290919A02A091DE
:1012B0009B02B0919C023091980223E0230F2D37BE
:1012C00020F40196A11DB11D05C026E8230F02964A
:1012D000A11DB11D209398028093990290939A02C8
:1012E000A0939B02B0939C0280919D0290919E02DC
:1012F000A0919F02B091A0020196A11DB11D809303
:101300009D0290939E02A0939F02B093A002BF9172
:10131000AF919F918F913F912F910F900FBE0F90A2
:101320001F901895789484B5826084BD84B58160DF
:1013300084BD85B5826085BD85B5816085BDEEE6DD
:10134000F0E0808181608083E1E8F0E010828081BC
:1013500082608083808181608083E0E8F0E080812A
:1013600081608083E1EBF0E0808184608083E0EB4A
:10137000F0E0808181608083EAE7F0E08081846032
:10138000808380818260808380818160808380818E
:10139000806880831092C1000895833069F028F43A
:1013A0008130B1F08230C1F008958730C9F08830C3
:1013B000E9F0843001F506C0E0E8F0E080818F7745
:1013C00080830895E0E8F0E080818F7D8083089538
:1013D00084B58F7784BD089584B58F7D84BD0895CD
:1013E000E0EBF0E080818F7780830895E0EBF0E020
:1013F00080818F7D80830895CF93DF9390E0FC01FF
:10140000E358FF4F2491FC01EF56FF4F849188234E
:1014100079F190E0880F991FFC01E155FF4FA591EC
:10142000B491FC01EB55FF4FC591D49161110CC0F3
:101430009FB7F8948C91E22FE0958E238C932881AE
:10144000E223E8839FBF14C0623061F49FB7F89431
:101450003C91822F809583238C93E881E22BE88353
:101460009FBF06C08FB7F894EC91E22BEC938FBF2F
:10147000DF91CF9108951F93CF93DF93282F30E012
:10148000F901E759FF4F8491F901E358FF4F149197
:10149000F901EF56FF4FC491CC23D1F0D62F811123
:1014A0000E94CD09EC2FF0E0EE0FFF1FEB55FF4F30
:1014B000A591B4918FB7F894D11106C09C91E12FFA
:1014C000E095E923EC9303C0EC91E12BEC938FBF03
:1014D000DF91CF911F91089581EA92E00E947D03F0
:1014E00080910901882329F061E086E00E943B0A8F
:1014F000F3CF60E086E00E943B0AEECF61E089E036
:101500000E943B0A6DE770E080E090E00E946D026F
:1015100060E089E00E943B0A6DE770E080E090E0C7
:101520000E946D02EBCF81E090910901911180E062
:101530008093090181EA92E00E94A503089582E068
:101540000E94310343E050E063E97AE080E00E94CA
:10155000CB0861E089E00E94FC0961E086E00E941E
:10156000FC0941E060E070E081EA92E00E945A03E9
:1015700040E050E06CE67AE080E090E00E94B0004D
:1015800040E050E06EE77AE081E090E00E94B00039
:101590000E94450308950895AA1BBB1B51E107C093
:1015A000AA1FBB1FA617B70710F0A61BB70B881FF3
:1015B000991F5A95A9F780959095BC01CD01089582
:1015C00097FB072E16F4009407D077FD09D00E94F0
:1015D000CC0A07FC05D03EF4909581959F4F089565
:1015E000709561957F4F0895A1E21A2EAA1BBB1B2F
:1015F000FD010DC0AA1FBB1FEE1FFF1FA217B307DF
:10160000E407F50720F0A21BB30BE40BF50B661FF4
:10161000771F881F991F1A9469F7609570958095B8
:1016200090959B01AC01BD01CF010895EE0FFF1F06
:101630000590F491E02D09940F931F93CF93DF93BE
:10164000869F8001879F100D969F100D1124C80161
:101650000E94380BEC01009729F0A80160E070E0CF
:101660000E94650CCE01DF91CF911F910F910895DB
:10167000CF93DF938230910510F482E090E0E09107
:10168000B502F091B60220E030E0C0E0D0E0309743
:1016900011F14081518148175907C0F04817590787
:1016A00061F482819381209719F09B838A832BC0F8
:1016B0009093B6028093B50226C02115310519F02A
:1016C0004217530718F49A01BE01DF01EF010280AF
:1016D000F381E02DDCCF2115310509F1281B390BF1
:1016E0002430310590F412968D919C9113976115D9
:1016F000710521F0FB019383828304C09093B602AD
:101700008093B502FD01329644C0FD01E20FF31F44
:1017100081939193225031092D933C933AC02091AB
:10172000B3023091B402232B41F420910201309195
:1017300003013093B4022093B30220910001309151
:1017400001012115310541F42DB73EB74091040147
:1017500050910501241B350BE091B302F091B402C6
:10176000E217F307A0F42E1B3F0B2817390778F078
:10177000AC014E5F5F4F2417350748F04E0F5F1FD7
:101780005093B4024093B3028193919302C0E0E07E
:10179000F0E0CF01DF91CF9108950F931F93CF9386
:1017A000DF93009709F48CC0FC01329713821282F8
:1017B0000091B5021091B6020115110581F4208146
:1017C0003181820F931F2091B3023091B402281708
:1017D000390779F5F093B402E093B30271C0D801F0
:1017E00040E050E0AE17BF0750F412962D913C91A7
:1017F0001397AD012115310509F1D901F3CF9D01F1
:10180000DA013383228360817181860F971F8217EB
:10181000930769F4EC0128813981260F371F2E5F69
:101820003F4F318320838A819B8193838283452B21
:1018300029F4F093B602E093B50242C01396FC93EC
:10184000EE931297ED01499159919E01240F351F96
:10185000E217F30771F480819181840F951F02963E
:1018600011969C938E938281938113969C938E9371
:101870001297E0E0F0E0D80112968D919C911397B9
:10188000009719F0F8018C01F6CF8D919C91980189
:101890002E5F3F4F820F931F2091B3023091B4020D
:1018A0002817390769F4309729F41092B60210927C
:1018B000B50202C0138212821093B4020093B302E5
:1018C000DF91CF911F910F910895DC0101C06D93BD
:0C18D00041505040E0F70895F894FFCF1D
:1018DC000000B7022000FF32FF014552524F523A2E
:1018EC00200000000000970541070F0529051B0586
:1018FC00750500000000E4060D0A006E616E0069BB
:0A190C006E66006F7666002E000084
:00000001FF
